:020000040800F2
:1000000000500020B93C00080D38000811380008E5
:1000100015380008193800081D38000800000000D5
:10002000000000000000000000000000213800086F
:100030002538000800000000293800082D38000885
:10004000013D0008013D0008013D0008013D000898
:10005000013D0008013D0008013D0008013D000888
:10006000013D0008013D0008013D0008013D000878
:10007000013D0008013D0008013D0008013D000868
:10008000013D0008013D0008013D0008013D000858
:1000900031380008013D0008013D0008013D00081D
:1000A000013D00083D380008013D0008013D000801
:1000B000013D0008013D0008013D0008013D000828
:1000C000013D0008013D0008013D0008013D000818
:1000D000013D0008013D0008013D0008013D000808
:1000E000013D0008013D0008013D0008000000003E
:1000F0000000000000000000000000000000000000
:0C01000000000000000000005FF808F1A3
:10010C0010B5054C237833B9044B13B10448AFF345
:10011C0000800123237010BD7C0100200000000032
:10012C004C3D000808B5034B1BB103490348AFF322
:10013C00008008BD00000000800100204C3D00083C
:10014C004FF47A7370B50D4D0D4A29781268B3FBD4
:10015C00F1F30646B2FBF3F000F0A0F808B90F2E4D
:10016C0001D9012070BD0446024631464FF0FF30E4
:10017C0000F050F86E60204670BD00BF00000020FB
:10018C0018010020074A08B51368032043F0100338
:10019C00136000F02DF80020FFF7D2FF03F046FAB1
:1001AC00002008BD00200240034A044B11681B7854
:1001BC000B441360704700BFBC03002000000020FC
:1001CC00014B1868704700BFBC03002038B50446CB
:1001DC00FFF7F6FF631C054602D0044B1B781C444A
:1001EC00FFF7EEFF401BA042FAD338BD0000002001
:1001FC004FF6FF01064A0002D36800F4E0600B40A2
:10020C0043F0BF6343F400330343D360704700BF34
:10021C0000ED00E0184B30B4DB68C3F30223C3F1EC
:10022C000705042D03F1040428BF0425062C19D955
:10023C004FF0FF34033B9C4022EA04044FF0FF32A2
:10024C00AA4021EA020101FA03F22243120100281A
:10025C00D2B20ADB00F1604000F5614080F8002367
:10026C0030BC704700242346E8E7044B00F00F0035
:10027C0003441A7630BC704700ED00E0FCEC00E063
:10028C00002807DB012300F01F01034A8B404009C3
:10029C0042F82030704700BF00E100E00138B0F1B7
:1002AC00807F0DD230B4F02500220721054B064C7F
:1002BC00586084F82350104630BC9A60196070471F
:1002CC000120704710E000E000ED00E00A68002A11
:1002DC0000F0DC802DE9F04F4FF0000A85B0554658
:1002EC00DFF8D0C1DFF8D0E16D4FDFF8D08103E04B
:1002FC00013532FA05F379D00123AB4002EA03044D
:10030C00A342F5D14A68122A00F09F8000F288803F
:10031C00022A00F09E807DD9032A6AD0112A02D1CC
:10032C00CB6803F1040AFF2C67D881460368AA0046
:10033C000F2606FA02FB23EA0B030AFA02F2134316
:10034C00C9F800304A68D30062D5DCF8189025F063
:10035C00030349F00109CCF81890DCF8189003F16C
:10036C00804309F00109CDF80C9003F5803305F0BA
:10037C000309DDF80CB04FEA8909D3F808B006FA86
:10038C0009F62BEA06067045019611D0404564D05B
:10039C00444EB0427BD0444EB0420CBF4FF0030BE6
:1003AC004FF0040B019E0BFA09F946EA0906019677
:1003BC00019E9E603B68D6034CBF2343A3433B6026
:1003CC007B6896034CBF2343A3437B60BB68D60278
:1003DC004CBF2343A343BB609202FB6815D51C435F
:1003EC00FC600A68013532FA05F385D105B0BDE829
:1003FC00F08FFF2C4FF0000A97D905F18042083A94
:10040C004368920000F1040992E723EA0404FC60BB
:10041C000A686DE7A2B1012A85D1D1F80CA082E758
:10042C00224EB2420CD020D9214EB24208D006F551
:10043C008036B24204D0A6F58016B2427FF473AF78
:10044C008A68E2B94FF0040A6DE7CB6803F10C0A35
:10045C0069E7CB6803F1080A65E74FF0010B0BFA6B
:10046C0009F946EA09060196A2E7A6F58016B242FA
:10047C00E6D006F58036B2427FF455AFE0E7012AAC
:10048C000CBF036143614FF0080A4CE770474FF013
:10049C00020B019E0BFA09F946EA0906019687E759
:1004AC000004014000100140001401400000211024
:1004BC00000031100010024000080140000C014007
:1004CC008368194214BF01200020704702B9090447
:1004DC0001617047C3680B4214BF416101617047F1
:1004EC00002800F09780F8B590F83D30044603F0F2
:1004FC00FF02002B00F087802423226884F83D3013
:10050C00136823F00103136000F084FF62684B4B07
:10051C009A424BD84A4B98427AD9431E5200B3FBAD
:10052C00F2F248492368A1FB00105968800C21F0B5
:10053C003F0101435960196A013021F03F01084322
:10054C001862501CC0F30B00042838BF0420D96972
:10055C0021F44F4121F0FF01002520260843D861EA
:10056C001968D4E9072021F0C00102430A431A603C
:10057C009968D4E9030221F4034121F0FF010243FD
:10058C000A439A60D968D4E9052021F0FF0102439F
:10059C000A43DA601A68284642F001021A602564A0
:1005AC0084F83D60256384F83E50F8BD264B984294
:1005BC002ED94FF49671234D2368A5FB0065AD0C25
:1005CC0001FB05F15E68214F26F03F06A7FB017188
:1005DC0035435D601D6A890925F03F0501312943CA
:1005EC001962D969A56821F44F41013821F0FF0146
:1005FC0095B902EB4202B0FBF2F00130C0F30B00F4
:10060C00C0B90120A8E780F83C2003F031F873E76B
:10061C000120F8BD0120704702EB820202EB82023E
:10062C00B0FBF2F00130C0F30B000028E9D040F42D
:10063C00404091E740F400408EE700BFA0860100E7
:10064C007F841E0083DE1B43FF083D00D34D6210E8
:10065C00F0B587B0002874D090F82932044603F026
:10066C00FF02002B68D00323264684F82932206829
:10067C0001F0E8FB56F810CB6D4637460FCF0FC58F
:10068C003B68271D2B60604697E80E0001F0C8FB05
:10069C00054630B10223012584F82932284607B0DB
:1006AC00F0BD0146206801F0D7FBD4F804C0BCF1C2
:1006BC00000F29D028464FF0010E2A4604EB4013B8
:1006CC00451C83F82800D886E8B2604583F829E0F9
:1006DC0083F82B20C3E90E221A64EFD300231946AA
:1006EC0004EB43125D1C03F10A0082F82831EBB2D3
:1006FC004001634582F8291182F82B11C2F8381198
:10070C00C2F83C112150EBD30FCE6D46D4F800C08B
:10071C000FC5336860462B6097E80E0001F09EFB16
:10072C0005460028B6D1012384F82400206884F8FB
:10073C00293201F0B7FFB1E780F8282203F006F95F
:10074C0091E70125284607B0F0BD00BF90F828328C
:10075C00012B10D0012110B5044680F8281203F0AB
:10076C0023FA206801F09CFF206801F061FB002057
:10077C0084F8280210BD0220704700BF90F8282290
:10078C00012A0DD010B50446012284F8241080F8FB
:10079C002822006801F07EFF002084F8280210BD9A
:1007AC0002207047F8B501F0070509064FEA451419
:1007BC001FD40027061904F5947186F82971014499
:1007CC004C780D700A61CB7004B1CD81022B04BF43
:1007DC0000230B7190F82832012B12D00123044610
:1007EC0080F82832006801F053FB002084F82802BE
:1007FC00F8BD0127061904F1280186F82970014477
:10080C00DEE70220F8BD00BF01F00702090610B5B3
:10081C004FEA421316D40024C11803F5947381F8DF
:10082C002941C1180A7090F82832012B15D00123E8
:10083C00044680F82832006801F0B2FC002084F8ED
:10084C00280210BD0124C118283381F82940C11891
:10085C000A7090F82832012BE9D1022010BD00BF9C
:10086C0070B5002601F007014D01441905F594758A
:10087C0084F82811C4F83C214119C4F840310068AF
:10088C00C4F8446184F8296101F060FD304670BD04
:10089C0001F0070100EB4111D1F84401704700BF92
:1008AC00F8B50026012701F007014D014419283540
:1008BC0084F82810C4E90F234119006884F82970C2
:1008CC00666401F043FD3046F8BD00BF2DE9F84FDA
:1008DC000446006801F0E8FE0104226843D4104687
:1008EC0001F0E2FE460500F17181206801F0DCFEAA
:1008FC0010F4804F206807D0B0F8443023F48043C4
:10090C001B041B0CA0F8443001F0CEFE10F4005F69
:10091C00206807D0B0F8443023F400531B041B0CA0
:10092C00A0F8443001F0C0FEC50400F1318120680C
:10093C0001F0BAFE000500F10481206801F0B4FE5C
:10094C00820500F1F180206801F0AEFEC30508D5E8
:10095C002268B2F8443023F480731B041B0CA2F8F9
:10096C004430BDE8F88FDFF8E8A3DFF8E8B3B2F85D
:10097C0044301F04B3D5B2F8441089B211F00F05FE
:10098C0057D111F01001138800F03E819BB213F483
:10099C00006540F066811B04E9D540F68F73118821
:1009AC000B4043F080031380B2F8503094F82811B8
:1009BC0003EBC10302EB4303B3F80C34C3F3090399
:1009CC00C4F844319BB1D4F83C1181B11046B4F851
:1009DC002E2101F06FFED4F83C31D4F84421294685
:1009EC001344C4F83C31204602F0D6FF2268B2F81A
:1009FC005030D4F838119BB202F20C40002940F070
:100A0C008481C15A21F4F8410904090CC152C15A1C
:100A1C006FEA41416FEA514189B2C1521188CA4B08
:100A2C000B4083F4405343F4004343F080031380A2
:100A3C009DE732F82560B6B2310426D4330696D53C
:100A4C0032F8253004EB45110AEA030343F4004362
:100A5C0022F82530B2F8503091F82800CD6B03EB1A
:100A6C00C00302EB4302B2F804040B6CC0F30900A0
:100A7C002A184864CA63204691F82810002B40F0CD
:100A8C00EC8002F091FF226871E740F68F7332F828
:100A9C0025106F010B4043F0800322F8253004EB46
:100AAC00070999F8343102F58060002B00F0FB80C7
:100ABC0099F8283132F823C002EB83011CF4804FE3
:100ACC00B2F850C04FEAC303634400F0078102330D
:100ADC0030F81380C8F30908B8F1000F40F02F81EB
:100AEC000B880BEA030343F4004343F0C0030B8071
:100AFC002744D7F84411D7F83C21D7F8403141446A
:100B0C004244C7F84411C7F83C21002B00F0E380A5
:100B1C00D7F8380197F82811804580F000812046DD
:100B2C0002F03AFF226889E722682046B2F8443086
:100B3C0023F400731B041B0CA2F8443002F03CFF9E
:100B4C0001E72368B3F84020184642F00802A3F8E6
:100B5C004020B3F8442022F400621204120CA3F8D3
:100B6C004420B3F8402042F00402A3F8402001F0E6
:100B7C009BFDC10408D52268B2F8443023F480539D
:100B8C001B041B0CA2F84430204602F02BFFD4E6C9
:100B9C0022682046B2F8403023F004031B041B0CDF
:100BAC00A2F84030B2F8403023F008031B041B0CB1
:100BBC00A2F8403002F026FF2068B0F8443023F44D
:100BCC0080531B041B0CA0F84430B1E6226820466D
:100BDC00B2F8443023F480631B041B0CA2F844309D
:100BEC0002F0EEFE94F82832012B3FF47EAE002585
:100BFC00012384F8245084F828322946206801F017
:100C0C0049FD84F8285270E60AEA030343F40043D2
:100C1C001380B2F8503094F82800E56B03EBC00356
:100C2C0002EB4302B2F804342046C3F309031D441B
:100C3C006364E56302F0B8FE94F824307BB1236C56
:100C4C002268002B7FF493AE94F8241041F08001BD
:100C5C00A2F84C1084F8243089E6FFF721FE2268B4
:100C6C0085E6B2F8503094F82811104603EBC10316
:100C7C0002EB4302B2F80C3404F50C71C3F3090314
:100C8C00B4F82E21C4F8443101F014FD40F68F73F2
:100C9C002268204611880B4043F08003138002F039
:100CAC0075FE226863E6B2F8503099F828110633C5
:100CBC0003EBC10330F81380C8F30908B8F1000F37
:100CCC003FF416AF10464346B9F82E21D9F83C1123
:100CDC0001F0F0FC0CE797F8281120E7063330F808
:100CEC001380C8F30908B8F1000F3FF4F9AE43467E
:100CFC001046B9F83221D9F83C1101F0DBFC99F817
:100D0C002831216801EB8301EAE63E290CD84D0815
:100D1C00CF0748BF0135AD02ADB2C5527EE62046C5
:100D2C00FFF79EFD226889E64D09CE06074908BFEC
:100D3C0005F1FF3541EA8525ADB2C5526EE6104688
:100D4C004346B9F83021D6E78FBFFFFF0080FFFF85
:100D5C000F8FFFFF8F8FFFFF38B5436801F007053A
:100D6C009D421BD80B061BD400244901431883F861
:100D7C002941012301F5947281180D708B7090F844
:100D8C0028229A421BD0044680F82832006801F0D1
:100D9C000BFCB5B1002084F8280238BD012038BD09
:100DAC0001226B0103F12801034483F8292001235C
:100DBC0001440D708B7090F828229A42E3D10220E6
:100DCC0038BD04F50C71206801F072FCE2E700BF3D
:100DDC0038B5436801F00F029A421ED801F00702A1
:100DEC0009064FEA42131AD40025C41884F8295175
:100DFC00002503F5947101440A708D7090F8283227
:100E0C00012B1AD00123044680F82832006801F027
:100E1C00EDFB84F82852284638BD012038BD012549
:100E2C00C41884F82950002503F1280101440A70E4
:100E3C008D7090F82832012BE4D1022038BD00BF10
:100E4C0011F0800F0DD001F0070100EB411028309C
:100E5C0099B26AB101221B0C4381018102730020FB
:100E6C00704700EB411000F5947099B2002AF1D153
:100E7C000273C18000207047002800F055812DE9D5
:100E8C00F041036882B0DD07044635D5A8494A68AD
:100E9C0002F00C02042A00F005814A6802F00C02F0
:100EAC00082A00F0FB806368B3F5803F10D0002B5C
:100EBC0000F02081B3F5A02F00F078819C4B1A68CC
:100ECC0022F480321A601A6822F480221A6004E03C
:100EDC00974A136843F480331360FFF771F9944D0C
:100EEC00064605E0FFF76CF9801B642800F2F580DC
:100EFC002B689A03F6D523689F074DD41A0722D581
:100F0C00A369002B00F0BA8001228A4B884D1A602D
:100F1C00FFF756F9064605E0FFF752F9801B022849
:100F2C0000F2DB806B6A9B07F6D5834B834A1B6808
:100F3C00A2FB03235B0A019300BF019B5A1E019283
:100F4C00002BF9D123685D0769D5794BDA69D0009C
:100F5C0000F1EC800125DA6942F08052DA61DB693C
:100F6C0003F080530093009B754B1A68D10540F138
:100F7C00A380E368012B37D0002B00F0E780052B12
:100F8C006B4B1A6A00F01F8122F001021A621A6A76
:100F9C0022F004021A622CE0654A516811F00C0F21
:100FAC0061D0516801F00C01082959D02369002B3C
:100FBC0000F0EB800122634B5D4D1A60FFF700F9E6
:100FCC00064605E0FFF7FCF8801B022800F285803E
:100FDC002B689807F6D52B68626923F0F80343EA6F
:100FEC00C2032B60236889E7514A136A43F001035B
:100FFC001362FFF7E5F84E4E804641F2883705E064
:10100C00FFF7DEF8A0EB0800B84266D8336A9B07FE
:10101C00F6D525B1464AD36923F08053D361E069F4
:10102C00D0B1434D6A6802F00C02082A00F0D3805C
:10103C0002284FF00001444A00F0DE801160FFF7F7
:10104C00BFF82C46054604E0FFF7BAF8401B02280F
:10105C0043D823689B01F7D4002002B0BDE8F0818F
:10106C005268D603A2D4324A1268950739D5226940
:10107C00012A36D0012002B0BDE8F0812D4A2C4D5A
:10108C001360FFF79DF8064604E0FFF799F8801B04
:10109C00022822D86B6A9F07F7D453E74A68D0031B
:1010AC007FF501AF224A126891037FF525AF626884
:1010BC00002A7FF421AFDDE71A681E4642F48072E5
:1010CC001A60FFF77DF807463368DA053FF551AF34
:1010DC00FFF776F8C01B6428F6D9032002B0BDE8F0
:1010EC00F081134960690A6822F0F80242EAC002F2
:1010FC000A6003E703F1804303F504331A681D46C5
:10110C0022F480321A601A6822F480221A60FFF7E7
:10111C0057F8064604E0FFF753F8801B6428DCD828
:10112C002B689B03F7D4E6E60120704700251BE7EC
:10113C00001002408004424218010020D34D62107E
:10114C0000700040000042426000424203F18043C4
:10115C0003F504331A6A1E4622F001021A621A6A57
:10116C0041F2883822F004021A62FFF729F8074688
:10117C0004E0FFF725F8C01B4045AED8336A98074A
:10118C00F7D4002D3FF44BAF44E7344A344D136091
:10119C00FFF716F8064604E0FFF712F8801B02284A
:1011AC009BD82B689907F7D42368A7E603F18043F3
:1011BC00A3F53C331A6842F480221A601A6842F490
:1011CC0080321A6089E642F004021A621A6A42F00E
:1011DC0001021A620DE701283FF44DAF6B68226AD9
:1011EC0003F4803191427FF445AF606A03F47013CD
:1011FC00181A18BF01203EE71160FEF7E1FF064602
:10120C0005E0FEF7DDFF801B02283FF666AF2B687A
:10121C009901F6D4226AB2F5803F05D16B68A168BA
:10122C0023F400330B436B6001250D4B606A596846
:10123C00024321F474110B480A435A6005601C46A2
:10124C00FEF7BEFF054605E0FEF7BAFF401B02287D
:10125C003FF643AF23689A01F6D5FDE60000424203
:10126C00001002406000424240F2012286B0154B51
:10127C000DF1180CADF804200FCB0CE90F0012493E
:10128C004B6803F00C02082A02D0104806B07047D5
:10129C00C3F383426244DB0312F8102C04D40C48D1
:1012AC0000FB02F006B070474B680848C3F340439C
:1012BC0000FB02F0634413F8143CB0FBF3F006B0EF
:1012CC00704700BF643D00080010024000127A0015
:1012DC0000093D0078B14A4A136803F007038B42BA
:1012EC000BD2136823F007030B431360136803F04E
:1012FC0007038B4201D00120704703682DE9F041B0
:10130C009D0714D55C0704D53E4C626842F4E0623C
:10131C0062601A0704D53B4C626842F4605262600A
:10132C00384C8568626822F0F0022A436260DF075D
:10133C0004460D4620D54268324B012A1B6856D014
:10134C00022A59D0990727D52E4E41F28838736856
:10135C0023F0030313437360FEF732FF074604E0E8
:10136C00FEF72EFFC01B404544D87368626803F03B
:10137C000C03B3EB820FF3D1214A136803F007037C
:10138C00AB420CD9136823F007032B43136013688B
:10139C0003F00703AB4202D00120BDE8F0812368C3
:1013AC005A0706D51749E0684A6822F4E0620243FE
:1013BC004A601B0712D4FFF757FF124B124A5B68A7
:1013CC001249C3F30313D35C114A20FA03F30868E0
:1013DC001360FEF7B5FE0020BDE8F081094A2169D3
:1013EC00536823F4605343EAC1035360E3E79E035D
:1013FC00AAD4D1E70320EFE79801A5D4CCE700BF2E
:10140C000020024000100240743D0008040000203F
:10141C0018010020044B05495B68054AC3F30223FD
:10142C00CB5C1068D840704700100240843D000827
:10143C0018010020044B05495B68054AC3F3C2231D
:10144C00CB5C1068D840704700100240843D000807
:10145C00180100202DE9F0410446006882B0C50750
:10146C002AD53A4BDA69D1003DD5394B00251A689B
:10147C00D20546D5354960680A6A12F440720FD01D
:10148C0000F4407393420BD0012700260B6A314ABB
:10149C0023F44070176016600862D80745D4606862
:1014AC002A4A136A23F44073034313621DB1D369B0
:1014BC0023F08053D3612068830706D5234AA168A3
:1014CC00536823F440430B43536010F0100007D0D3
:1014DC0000201E4AE168536823F480030B435360D9
:1014EC0002B0BDE8F081DA69012542F08052DA6180
:1014FC00DB6903F080530193019B154B1A68D205ED
:10150C00B8D41A681E4642F480721A60FEF758FE70
:10151C0007463368DB05ADD4FEF752FEC01B6428CA
:10152C00F7D9032002B0BDE8F0810E46FEF748FE65
:10153C0041F288378046336A9A07B0D4FEF740FEF2
:10154C00A0EB0800B842F6D9EBE700BF0010024050
:10155C0000700040400442422DE9F04107460D4620
:10156C00164698463C6801E0731C06D1A06835EA23
:10157C000003F9D00020BDE8F081FEF721FEA0EBBE
:10158C0008008642EED8D7E900315A68B1F5827F5F
:10159C0022F0E0025A6014D0BA6AB2F5005F07D0AC
:1015AC000122002387F8512087F850300320E2E70E
:1015BC001A6822F400521A601A6842F400521A6037
:1015CC00EEE7BA68B2F5004F02D0B2F5806FE3D106
:1015DC001A6822F040021A60DEE700BF2DE9F043E2
:1015EC000446012083B084F85000914698460F467B
:1015FC000A9DFEF7E5FD94F851200646D2B2012A69
:10160C00636811D0B3F5827F09D002200122002338
:10161C0084F8512084F8503003B0BDE8F083A16801
:10162C000029F2D1042AF0D1002F64D0B9F1000FB7
:10163C0061D0B8F1000F5ED094F851202168042AD3
:10164C001CBF052284F8512000226265A4F83E805C
:10165C00A4F836800868C4F838904006A4F83C809A
:10166C002763A4F83480C4E9102246D5E268B2F5A9
:10167C00006F5AD0002B45D13B780B73E38E226B55
:10168C00013B9BB20132E38622630127E28E92B2C8
:10169C001AB9E38F9BB2002B38D022689368980755
:1016AC000FD5E38E9BB263B15FB10027236B1B7820
:1016BC001373E38E226B013B511C9BB22268E386B1
:1016CC0021639368D9070DD5E38F9BB253B10127E2
:1016DC00D268A36B1A70E38FA26B013B9BB23A44A6
:1016EC00E387A263FEF76CFD801B8542CED86B1C92
:1016FC00CCD003208AE7012088E70A6842F0400238
:10170C000A60B3E7B8F1010FBFD1B5E733462A46FB
:10171C0080212046FFF720FF002846D02022636D51
:10172C00012013436365626570E7002B34D0B8F178
:10173C00010F31D00127E38E9BB21BB9E38F9BB213
:10174C00002BE3D023689A6891070DD5E28E92B2F4
:10175C0052B14FB10027216B31F8022BDA60E28EC7
:10176C002163013A92B2E2869A68D2070CD5E28FD5
:10177C0092B24AB10127DB68A26B22F8023BE38FDD
:10178C00A263013B9BB2E387FEF71AFD801BA842C4
:10179C00D1D36B1CCFD0ACE737F8023BCB60E38ED8
:1017AC002763013B9BB2E386C4E7A368002B7FF45D
:1017BC002DAF23680190DA6801929B680193019B1D
:1017CC0024E700BF00283BD0F8B5002390F8511057
:1017DC000446836201F0FF0261B31A46D4E9013674
:1017EC00022700210125E068334326690343606921
:1017FC003343E669D4F818C00343206A33432668A0
:10180C0084F8517003430CF40070034330684FEAC2
:10181C001C4C134320F040000CF004023060336089
:10182C007260F369084623F40063F361616584F820
:10183C005150F8BD80F8502001F04CFFA26ACDE762
:10184C000120704710B490F85040012C02D010BC0D
:10185C00FFF7C4BE022010BC704700BF0368DA68F3
:10186C0042F00102DA609A6802F00702062A03D0FD
:10187C001A6842F001021A600020704790F83C3060
:10188C00012B5AD00222F0B40125036880F83D20C8
:10189C009A680C6822F47F4222F07702402C80F880
:1018AC003C509A6074D04AD9602C2DD056D9702CEB
:1018BC001AD0B4F5005F0ED1D1E90152CC68996809
:1018CC002A4342EA042221F47F410A439A609A682F
:1018DC0042F480429A600023F0BC012280F83C3034
:1018EC0080F83D2018467047D1E90152CC689968C0
:1018FC002A4342EA042221F47F410A439A609A68FF
:10190C0042F077029A60E6E71C6A4D6824F01004F6
:10191C00CE681C6299691A6A21F4704122F0A00207
:10192C0042EA051241EA063199611A629A6822F07C
:10193C00700242F067029A60CDE702207047102CCB
:10194C0004D03DD9202C01D0302CC4D19A6844F05D
:10195C00070422F0700214439C60BCE7502CBAD1EF
:10196C001D6A1E6A4C6826F00106CF681E629A69D1
:10197C0025F00A0122F0F00242EA071221439A6193
:10198C0019629A6822F0700242F057029A60A2E73C
:10199C001D6A1E6A4C6826F00106CF681E629A69A1
:1019AC0025F00A0122F0F00242EA071221439A6163
:1019BC0019629A6822F0700242F047029A608AE734
:1019CC00002CC3D087E700BF704700BF704700BF33
:1019DC00704700BF704700BF704700BF036810B569
:1019EC001A690446910702D5DA6892075FD41A691E
:1019FC00500702D5DA68510746D41A69120702D586
:101A0C00DA6810072ED41A69D20602D5DA68D00625
:101A1C0018D41A69D10702D5DA68D2075DD41A69CD
:101A2C00100602D5DA6811065FD41A69520602D57F
:101A3C00DA68500661D41A69910602D5DA68920602
:101A4C0043D410BD6FF0100108221961DB692046E8
:101A5C0013F4407F227764D0FFF7BAFF002223688B
:101A6C002277D6E76FF0080104221961DB69204662
:101A7C009907227752D1FFF7A9FF2046FFF7AAFF5B
:101A8C00002223682277BEE76FF00401022219615D
:101A9C009B69204613F4407F22773CD1FFF796FFD9
:101AAC002046FFF797FF002223682277A5E76FF007
:101ABC000201012219619B6902779B0725D0FFF770
:101ACC0087FF00222368227791E76FF020022046DF
:101ADC00BDE810401A6100F0A5B86FF00102204675
:101AEC001A61FFF771FF236899E76FF080022046B7
:101AFC001A6100F099F8236897E76FF040022046CE
:101B0C001A61FFF769FF236895E7FFF75FFF20462F
:101B1C00FFF760FFD5E7FFF75BFFC4E7FFF758FF60
:101B2C00AEE7FFF753FF2046FFF754FF96E700BFE1
:101B3C0070B41C4E0368B0424D698C680A681DD0A5
:101B4C00B0F1804F11D0A6F59436B0420DD006F509
:101B5C008066B04209D023F080032B43036001233D
:101B6C00C462826270BC436170474E6823F070039C
:101B7C003343C96823F440730B43ECE74E6823F0FE
:101B8C0070033343CE6823F44073334323F0800354
:101B9C002B430360C46282620B6970BC0363012334
:101BAC0043617047002C0140B8B190F83D3010B53E
:101BBC0003F0FF0204465BB10223206884F83D3039
:101BCC00211DFFF7B5FF0123002084F83D3010BD27
:101BDC0080F83C2001F0B8FDEEE70120704700BF13
:101BEC0090F83C20012A1AD00222F0B403460025BA
:101BFC000126046880F83D206068D1E9002720F0B8
:101C0C0070011143A268284622F080023A436160B9
:101C1C00A26083F83D6083F83C50F0BC7047022012
:101C2C00704700BF704700BF704700BF38B504460F
:101C3C000368C0681969A26821F440510143196115
:101C4C00D968D4E9045021F4B0512A4321F00C0195
:101C5C0002430A43DA605A69A069124922F44072BD
:101C6C0002438B425A611AD0FFF7D4FB636800EB36
:101C7C0080009B0000EB8000B0FBF3F064230A496A
:101C8C002468A1FB0052520903FB12031B013233DF
:101C9C00A1FB0313120102EB5313A36038BDFFF732
:101CAC00C9FBE3E7003801401F85EB512DE9F041FA
:101CBC0007460E4690461D463C6801E06B1C06D15B
:101CCC00206836EA0003F9D10020BDE8F08135B177
:101CDC00FEF776FAA0EB08008542EDD23C68202294
:101CEC000021E368032023F4D073E360636923F0DD
:101CFC000103636187F8392087F8381087F83A2098
:101D0C00E3E700BF60B338B590F83930044603F010
:101D1C00FF0203B32423226884F83930D3682046A9
:101D2C0023F40053D360FFF781FF002520212368A3
:101D3C0028461A6922F490421A615A6922F02A0242
:101D4C005A61DA6842F40052DA60E56384F83910BB
:101D5C0084F83A1038BD80F8382001F015FDD9E729
:101D6C0001207047F0B5044690F8390083B0202864
:101D7C0040D10D46002940D00192002A3DD01E468C
:101D8C0094F83830012B35D0002001212123E06359
:101D9C0084F8381084F83930FEF712FA0746019AA5
:101DAC00A284E284E38C9BB2BBB1E38CA268013BBE
:101DBC009BB2B2F5805FE3843A4633464FF0800124
:101DCC0020461DD0FFF772FF40BB23682A780135EF
:101DDC005A60E38C9BB2002BE7D133463A46402144
:101DEC002046FFF763FFC8B9202384F8380084F835
:101DFC00393000E0022003B0F0BD012003B0F0BD8B
:101E0C00FFF754FF50B92B8821682269C3F30803EC
:101E1C004B600AB90235C5E70135C3E70320EAE791
:101E2C0084B001A880E80E0004B00020704700BF09
:101E3C000246B0F84030002043F43F43A2F8403053
:101E4C00704700BF44F2FF030246B0F84010002078
:101E5C000B40A2F8403070470020704784B070B43B
:101E6C00044601250020A4F84050A4F84000A4F832
:101E7C004400A4F85000B4F8406004AD46F43F466A
:101E8C00A4F8406085E80E0070BC04B0704700BF39
:101E9C0070B40D78034630F82540BC4AC87822400F
:101EAC00032800F24281DFE800F04E46024A00208F
:101EBC0048F28004224323F825200D78B44E33F8E1
:101ECC0025202C433240224323F825200A7B002A6C
:101EDC003DD1CC880A784D786408640003EB02127B
:101EEC00002D00F0E880B3F850502A44A2F80044CA
:101EFC000A7833F8225003EB82046D060BD533F8C5
:101F0C002240264046F4004646F0C00623F82260E4
:101F1C000C7803EB8404CB78012B00F02081228811
:101F2C009C4B134083F0200343F4004343F08003A5
:101F3C00238070BC704742F480620020B8E742F402
:101F4C00C0620020B4E742F400720020B0E70C78C5
:101F5C0033F82420324042F4014242F0800223F84C
:101F6C0024200A780C89B3F8505003EB0212640851
:101F7C0002F580626400ADB254530A784C89B3F810
:101F8C00505003EB0212640802F581626400ADB29A
:101F9C0054534A78002A42D10A7833F8225003EB82
:101FAC0082046D040BD533F82240264046F440469B
:101FBC0046F0800623F822600C7803EB8404228818
:101FCC0056060CD5228822F0F0021205120D42F4AE
:101FDC00004242F0C00222800C7803EB840448F2E9
:101FEC00800622886C4D22F0F0021205120D42F48C
:101FFC00004242F0C00222800C7833F824202A40A0
:10200C0082F44052324323F824200978614A33F891
:10201C0021402240324323F8212070BC70470A78BB
:10202C0033F8225003EB82046D040BD533F82240B5
:10203C00264046F4404646F0800623F822600C7891
:10204C0003EB8404228852060CD5228822F0F0027D
:10205C001205120D42F4004242F0C00222800C78AC
:10206C0003EB8404228822F0F0021205120D42F4D4
:10207C00404242F080022280CA780C78012A61D05A
:10208C0033F82450434A2A4082F0200242F40042A2
:10209C0042F0800223F82420097870BC33F8212008
:1020AC0022F0F0029204920C42F4004242F08002C0
:1020BC0023F821207047B3F850600D693244A2F820
:1020CC0008440A78B3F8504003EB021202F20C42B7
:1020DC00A4B265B33E2D4DD86E08ED0748BF01364E
:1020EC00B602B6B216530C7833F8245003EB8402C4
:1020FC006E040ED533F8242022F0F0021205120DD6
:10210C0042F4404242F0800223F824200A7803EB88
:10211C0082021188204B70BC0B4083F4405343F473
:10212C00004343F08003138070470120C0E6155B29
:10213C0025F4F8452D042D0C1553155B45F400457D
:10214C001553D0E733F8242022F0C0021205120DEB
:10215C0042F4004242F0800223F824209CE72388BA
:10216C0023F0C0031B051B0D43F4004343F0800315
:10217C00238052E76E09ED06084D08BF06F1FF36C5
:10218C0045EA8625ADB21553ADE700BF8F89FFFF39
:10219C008F8FFFFFBF8FFFFF8FBFFFFF0080FFFF01
:1021AC0030B40A780D7B00EB82034C7815BB002C05
:1021BC0000F0998030F8224064060ED530F82230B9
:1021CC0023F0F0031B051B0D43F4004343F0C00345
:1021DC0020F822300B7800EB83031A88002030BCE7
:1021EC0022F0C0021205120D42F4004242F08002AD
:1021FC001A807047002C41D130F8224064040ED56F
:10220C0030F8223023F0F0031B051B0D43F4404340
:10221C0043F0800320F822300B7800EB83031A88FC
:10222C0055060CD51A8822F0F0021205120D42F454
:10223C00004242F0C0021A800B7800EB830348F294
:10224C0080051A883F4C22F0F0021205120D42F460
:10225C00004242F0C0021A800A7830F82230234043
:10226C002B4320F822300A78374B30F822100B40E1
:10227C001D4320F82250002030BC704730F822401B
:10228C0064040ED530F8223023F0F0031B051B0D2F
:10229C0043F4404343F0800320F822300B7800EBEA
:1022AC0083031A8852063ED448F280051A88264CBD
:1022BC0022F0F0021205120D42F4404242F080026C
:1022CC001A800A7830F8223023402B4320F8223031
:1022DC000A781C4B30F822100B401D4320F822507A
:1022EC00002030BC704730F8224065040ED530F821
:1022FC00223023F0F0031B051B0D43F4404343F045
:10230C00800320F822300B7800EB83031A8800201E
:10231C0030BC22F0F0029204920C42F4004242F0E3
:10232C0080021A8070471A8822F0F0021205120DF2
:10233C0042F4004242F0C0021A800B7800EB830397
:10234C00B2E700BF8FBFFFFFBF8FFFFFF0B44C7829
:10235C008A69012C0B695DD09A4228D800258D61C1
:10236C000D7B13460A7845BBB0F8505000F20C4474
:10237C0012012C44002B00F083803E2B00F2EA80EB
:10238C005D08DB0748BF0135AD02ADB2A5520A7836
:10239C0030F82210814BF0BC0B4083F4405343F4D3
:1023AC00004343F0800320F82230002070470D7B5F
:1023BC00D21A8A610A78002DD6D0002CE8D1B0F858
:1023CC00505000F2044412012C44002B40F0A98020
:1023DC00A55A734E25F4F8452D042D0CA552A55A7B
:1023EC0045F40045A5524C78002C40F0A580B0F87F
:1023FC0050300A7800F20C4412011C44A35A23F406
:10240C00F8431B041B0CA352A35A33439BB2A35295
:10241C000A78BDE79A4230D8002413468C619AB2F0
:10242C000D7B013256089BB24A6900F58067002D7E
:10243C0032D1CC8807EB44043EB104EB860632F86B
:10244C00025B24F8045BA642F9D1B0F850500C782A
:10245C0000F204422A442401A3520A7800EB8202BF
:10246C001188504B0020F0BC0B4083F0300343F438
:10247C00004343F0800313807047D21A8A61CEE781
:10248C00A35A23F4F8431B041B0CA352A35A43F482
:10249C000043A3520A787BE70D7830F825402D01D4
:1024AC006406B0F850C024D500F20C446444635365
:1024BC004C8907EB44043EB102EB460332F8025B55
:1024CC00934224F8045BF9D10C784B7800EB84022E
:1024DC00ABB930F8243023F0F0031B051B0D43F48B
:1024EC00004343F0C00320F824300A7800EB82024A
:1024FC00B6E700F20444644463530C89D9E7012B1A
:10250C00AED130F8243023F0F0031B051B0D43F43F
:10251C00404343F0800320F824300A7800EB820219
:10252C009EE73E2B22D85D08DE0748BF0135AD0281
:10253C00ADB2A5524C7834B3012C0A787FF428AF95
:10254C00B0F8505000F20C4412019BB22C44A35230
:10255C000A781DE75D09DF06114B08BF05F1FF3551
:10256C0043EA85239BB2A3520A7811E75E09DD0684
:10257C000B4D08BF06F1FF3645EA8625ADB2A552D4
:10258C004C78002CD8D1B0F850400B7800F20C42AB
:10259C0022441B01D5520A78FAE600BF8FBFFFFF19
:1025AC000080FFFFBF8FFFFF4B780A7830F82210B6
:1025BC005BB90C4B0B4083F4805343F4004343F062
:1025CC00800320F8223000207047074B0B4083F02B
:1025DC00100343F4004343F0800320F82230002022
:1025EC00704700BF8FBFFFFFBF8FFFFF0B7B002B20
:1025FC0039D110B40B784C7800EB830214B330F85B
:10260C00232052060BD530F8232022F0F0021205BD
:10261C00120D42F4004242F0C00220F82320CB7885
:10262C00012B1DD00A78194B30F8221010BC0B402E
:10263C0083F0200343F4004343F0800320F822305E
:10264C000020704730F8234064040ED41188104BDE
:10265C000B4083F4405343F4004343F08003138056
:10266C00002010BC70470020704730F8232022F067
:10267C00F0021205120D42F4404242F0800220F8A2
:10268C0023200A7800EB8202E0E700BFBF8FFFFF38
:10269C008FBFFFFF11B98023A0F84C30002070478A
:1026AC000020704700207047B0F84400704700BF0E
:1026BC000020704700EB4202580802F580621AD0E5
:1026CC00F0B4174606468D1C37F8044B013EA4B2F5
:1026DC004FEA142C05F8024C05F801CC05F1020563
:1026EC00F2D1F0BC01EB400102EB8002D80744BFF1
:1026FC0013880B707047DB0744BF13880B7070474F
:10270C00D0F8BC3283B110B5D0F8B84294F80002BE
:10271C00FF2807D09B6894F8012221469847FF2395
:10272C0084F80032002010BD002070474323038042
:10273C00004870470800002043230380004870477E
:10274C004C00002043230380004870479000002079
:10275C000A23038000487047D400002038B5044693
:10276C00D0F8B85201F016FAD4F8B832C5F80C0209
:10277C004BB1D4F8BC3205F50371DB68D5F8040213
:10278C009847002038BD022038BD00BFF8B5D0F8FE
:10279C00B862D6B101EB810300EB8303DF694FB163
:1027AC00D0F8C02202EB4115AA6BB7FBF2F402FB86
:1027BC0014741CB10020C6F81402F8BDDC6122466A
:1027CC00234601F0CBF92046F8BD0220F8BD00BF2E
:1027DC002DE9F04100270B7882B013F060040D4610
:1027EC000646D0F8B8828DF80570ADF806700FD09B
:1027FC00202C17D1CC8891F801C064BBD0F8BC3226
:10280C00224660469B689847204602B0BDE8F0819E
:10281C004F780A2F14D00B2F0CD01FB990F89C3284
:10282C00032B28D03046294600F084FC022002B04D
:10283C00BDE8F08190F89C32032BF3D12046F6E7EB
:10284C0090F89C32032BEDD101220DF1050100F023
:10285C00A3FC2046EBE71B0614D5D0F8BC3222466D
:10286C0060469B6841469847EA884146304600F0EE
:10287C0093FC3846DBE702220DF1060100F08CFCDC
:10288C003846D4E788F800C288F80142224641460F
:10289C0000F098FC3846CAE738B50446002581217B
:1028AC0001F014F90121E562204601F00FF9C4F89A
:1028BC006C512046822101F009F9D4F8B832256414
:1028CC004BB1D4F8BC325B689847D4F8B80201F02D
:1028DC0069F9C4F8B852002038BD00BF037C2DE95B
:1028EC00F04104460125BBBB4FF400730222812149
:1028FC0001F0DCF8E56229464FF400730222204611
:10290C0001F0D4F8C4F86C5101270823032282216A
:10291C00204601F0CBF827644FF4077001F03EF924
:10292C000546C4F8B80268B30026D4F8BC321B685C
:10293C00984794F81080D5F80422C5F814623946EB
:10294C00C5F818622046B8F1000F14D0402301F0EE
:10295C0013F93046BDE8F08140230222812101F0B9
:10296C00A5F8E562294640230222204601F09EF894
:10297C00C4F86C51C8E74FF4007301F0FDF8404601
:10298C00BDE8F0813846E5E719B1C0F8BC1200206B
:10299C0070470220704700BFD0F8B8320020C3F84F
:1029AC000812C3F810227047D0F8B8320020C3F8D0
:1029BC0004127047D0F8B8228AB110B5047CD2F852
:1029CC0004222CB14023012101F0D6F8002010BDC7
:1029DC004FF40073012101F0CFF8204610BD022006
:1029EC00704700BF88B108B5D0F8B43213B10023DA
:1029FC00C0F8B43209B1C0F8B0120123027080F8EB
:102A0C009C3201F003F8002008BD0220704700BF83
:102A1C0019B1C0F8B412002070470220704700BFF3
:102A2C0008B501F035F8002008BD00BF08B5D0F896
:102A3C00B4321BB11B68984700B908BD022008BD11
:102A4C0008B5D0F8B4325B689847002008BD00BFC9
:102A5C0038B5044600F52A75284600F057FB0120CE
:102A6C0094F8A812B4F8AE2201F01F038342C4F804
:102A7C009402C4F8982215D00ED3022B06D001F084
:102A8C008001204601F030F8002038BD2946204650
:102A9C0000F0A6FA002038BD2946204600F0F6F8D2
:102AAC00002038BD2946204600F06EFA002038BDC3
:102ABC0070B5054641B9D0F89432032B0FD0052BD5
:102ACC000C462ED0002070BDD0F8B4329B69C3B137
:102ADC0090F89C22032A14D19847002070BD16460A
:102AEC00D0F86031D0F8642193420CD99B1A9A42E9
:102AFC00C0F860318CBF9AB292B2314600F072FBD2
:102B0C00E0E7022070BDD0F8B4321B6923B190F815
:102B1C009C22032A00D19847284600F06BFB00202A
:102B2C0070BDC5F8941200F0DFFF204670BD00BFE9
:102B3C0070B5044681B91346D0F89422022A19D0F4
:102B4C0032F0040302D1802100F0CEFF94F8A032C1
:102B5C000020012B0BD070BDD0F8B4325B6963B38D
:102B6C0090F89C22032A28D19847002070BD84F845
:102B7C00A00270BDD0E90862964220D8C369B3FBAD
:102B8C00F2F502FB15350DB99A4226D9D4F8B432B8
:102B9C00DB682BB194F89C22032A01D1204698477C
:102BAC008021204600F0A0FF204600F02FFB94F877
:102BBC00A0320020012BCED1D9E7022070BDB21A71
:102BCC000D460262194692B200F0F4FA2B462A46E0
:102BDC002946204600F0D0FFB8E7D0F8982293425F
:102BEC00D4D22A4600F0E6FAC4F89852EEE700BFB9
:102BFC0070B500224026044601251146334600F0EC
:102C0C0055FF33468021C4F85851C4F864612046FE
:102C1C00002200F04BFF0021D4F8B832A5616662A7
:102C2C0084F89C52C4F894126160C4F8A41223B1C5
:102C3C00D4F8B43220465B689847002070BD00BFC2
:102C4C0001740020704700BF0346042290F89C12C8
:102C5C00002083F89D1283F89C22704790F89C32D8
:102C6C00042B04BF90F89D3280F89C3200207047F2
:102C7C0090F89C22032A01D00020704708B5D0F8A8
:102C8C00B432DB6903B19847002008BD30B50B782E
:102C9C0083B003F06003202B0D46044628D0402B54
:102CAC0026D053B18021204600F01EFF2046002183
:102CBC0000F01AFF002003B030BD4B78092BF1D87F
:102CCC0001A252F823F000BF512D00087D2D000801
:102CDC00B12C0008992D0008B12C0008A52D000876
:102CEC00E32D0008B12C0008192E00080F2D000848
:102CFC00D4F8B43229469B6820469847002003B08C
:102D0C0030BD89789F4D01292970CBD890F89C3221
:102D1C00022B00F00D81032B40F0FE80002900F007
:102D2C0027814168012909D0C9B2FFF789FE2978AA
:102D3C0020466160FFF77AFE0228B3D0204600F0EF
:102D4C0059FAB7E790F89C320322013B022BA9D821
:102D5C00CB88022BA6D10121D0F8A432C16003B1DB
:102D6C00C260022204F10C01204600F015FAA1E722
:102D7C0090F89C32013B022B94D84B88012B99D1B3
:102D8C000023C0F8A43200F035FA93E74B88012BEE
:102D9C0090D1C0F8A432D1E78B88002B82D1CB889C
:102DAC00002B7FF47FAF4D887F2D3FF67BAF90F8E3
:102DBC009C32032B3FF476AFE9B280F89E1200F000
:102DCC00BFFE204600F016FA002D00F0CD80022345
:102DDC0084F89C326EE700234A88ADF80630130A5B
:102DEC00013B062B3FF65EAF01A151F823F000BF6B
:102DFC00B12E0008992E0008C12E0008B12C000835
:102E0C00B12C0008832E00083F2E0008CA88012A26
:102E1C007FF448AF90F89C32002B3FF443AF022B69
:102E2C0040F29480032B7FF43DAF011D00F0B4F908
:102E3C0040E7037C002B7FF435AFD0F8B4320DF1B2
:102E4C0006001B6B984707234370BDF80630EA88D1
:102E5C006BB1002A3FF472AF934228BF1346014670
:102E6C001A462046ADF8063000F096F9EA88002A9A
:102E7C007FF420AF62E7037C002B7FF413AFD0F814
:102E8C00B4320DF106005B6B9847DEE7027CD0F89C
:102E9C00B432002A61D19B6A0DF1060098470223D7
:102EAC004370D2E7D0F8B0320DF106011B68007CFC
:102EBC009847CAE7D2B2052A3FF6F4AEDFE802F033
:102ECC0026201A140E03D0F8B0329B69002B3FF465
:102EDC00E9AE0DF10601207C9847B6E7D0F8B03288
:102EEC005B69002BF5D1DDE6D0F8B0321B69002B05
:102EFC00EFD1D7E6D0F8B032DB68002BE9D1D1E6C0
:102F0C00D0F8B0329B68002BE3D1CBE6D0F8B032CE
:102F1C005B68002BDDD1C5E6802100F0E5FD0021CA
:102F2C00204600F0E1FD29782046FFF789FDC1E637
:102F3C0000293FF403AF01210323416080F89C3248
:102F4C00FFF774FD02287FF4F9AEABE600230146CF
:102F5C0041F8083F00F020F9ACE6DB6A0DF1060001
:102F6C0098470223437070E7012384F89C32A1E652
:102F7C000223416080F89C32FFF762FD204600F08E
:102F8C0039F997E69801002038B50B780D4603F017
:102F9C006003202B04460CD0402B0AD04BB180216F
:102FAC00204600F0A1FD2046002100F09DFD0020F0
:102FBC0038BD94F89C32013B022BF0D82B79012BB5
:102FCC00EDD8D4F8B43229469B6820469847EB8854
:102FDC00002BECD10028EAD1204600F00BF9E6E7F3
:102FEC0070B50B78044603F06003202B0CD0402BFB
:102FFC000AD083B18021204600F076FD20460021C6
:10300C0000F072FD002070BDD4F8B43220469B68ED
:10301C009847002070BD4B788A88012BD5B23ED0E2
:10302C0014D3032BE6D190F89C32022B46D0032B01
:10303C00E0D14B8833B96A0604D0CB8813B9294642
:10304C0000F052FD204600F0D5F8DBE790F89C32FA
:10305C00022B3DD0032BCDD105F00F0303EB8303E3
:10306C00120600EB830342D4D3F85831002BC1D0A5
:10307C0005F07F0303EB830600EB860606F5AA76C4
:10308C0033B12946204600F04BFD00283BD00123EC
:10309C00336031462046022200F07EF8B2E790F809
:1030AC009C32022B0AD0032BA4D14B88002BA9D124
:1030BC006E06C7D0294600F025FDC3E76B0699D0F4
:1030CC00294600F011FD2046802100F00DFD99E706
:1030DC0068068FD1002311064CBF04F1140104F5CE
:1030EC00AA7120460B60022200F056F88AE79B6911
:1030FC00002B3FF47FAF05F07F035E1C06EB8606CA
:10310C0000EB8606BCE73060C3E700BF0B780370AA
:10311C004B784370CA788B7803EB022343804A794F
:10312C000B7903EB02238380CA798B7903EB02239F
:10313C00C380704710B50446802100F0D5FC2046B2
:10314C00BDE81040002100F0CFBC00BF00B30378F5
:10315C0030B4F3B10446002314F8015F0133DBB241
:10316C00002DF9D15B000233032413800B704C70DB
:10317C0004785CB1022300255A1CD2B2CC548D5475
:10318C0010F8014F0233DBB2002CF5D130BC704784
:10319C0070470223E8E700BF38B5134602250A46FC
:1031AC00C0E90733C0F89452002100F0D7FC00208E
:1031BC0038BD00BF08B513460A46002100F0CEFC0E
:1031CC00002008BD38B5134603250A46C0F85C310B
:1031DC00C0F86031C0F89452002100F0CDFC002002
:1031EC0038BD00BF08B513460A46002100F0C4FCE8
:1031FC00002008BD08B504220023C0F8942219460B
:10320C001A4600F0ABFC002008BD00BF08B5052233
:10321C000023C0F8942219461A4600F0ADFC002099
:10322C0008BD00BF10B5002201210E48FDF74EF974
:10323C0014240A20FCF7CAFF4FF400510A48FDF78A
:10324C0049F9013CF5D1012206481146FDF73EF93A
:10325C006420FCF7BBFFBDE810404FF4005102485E
:10326C00FDF738B9000C01400010014070B5002387
:10327C0001244FF4803202254FF4801194B00AA837
:10328C000C93059301930D93CDE90F33CDE90633E0
:10329C00CDE90833CDE9023304930A940E940B92D2
:1032AC00CDE911521391FDF7E7FD00B1FEE702469F
:1032BC000F264FF48063214605A8CDE906520596EA
:1032CC00CDE90833FEF706F800B1FEE710224FF403
:1032DC00800301A801920493FEF7BCF800B1FEE74D
:1032EC0014B070BD2DE9F04700248EB0FCF74AFFF6
:1032FC00FFF7BCFFCDE90A44CDE90C44BB4B224699
:10330C009969022641F01001996198694FF40051B6
:10331C0000F01000049004989D69B54845F0200514
:10332C009D619D6905F020050595059D9D6945F0FC
:10333C0004059D619D6905F004050695069D9D6932
:10334C0045F008059D6101259B6903F0080307936F
:10335C00079BFDF7BBF822461F21A648FDF7B6F8E0
:10336C0022462946A448FDF7B1F84FF400530AA9A8
:10337C009F48CDE90A350D960C94FCF7A7FF1F2347
:10338C000AA99C48CDE90B540D960A93FCF79EFFB5
:10339C0080230AA997480A93CDE90B44FCF796FFC2
:1033AC000AA995480D96CDE90A550C944FF48276EE
:1033BC00FCF78CFF4FF4007518210A228F4B9048B4
:1033CC00C3E9024418601846C3E90444C3E908443D
:1033DC009C625E60C3E90651DA62FEF7F3F900B154
:1033EC00FEE702464FF4E1300C21864B864C5860C8
:1033FC001846C3E902221A61C3E906221C6059610E
:10340C00FEF780FC024600B1FEE74FF480407F4B94
:10341C007F4C804918611846C3E90041C3E9022278
:10342C00C3E90522C3E90722FDF75AF8044600B1A7
:10343C00FEE700F039FA4FF4E1514FF47A73764D10
:10344C00764A2846CDE90A44CDE90C4408946960D3
:10345C00AC60C5E90444AC612A60EB600994FEF7EA
:10346C00A3FB00B1FEE74FF480530AA928460A9348
:10347C00FEF704FA034600B1FEE7284608A9CDE999
:10348C000833FEF7ADFB00B1FEE70F24584D0A20C0
:10349C00FCF79CFE4FF400512846FDF71BF85A2010
:1034AC00FCF794FE4FF400512846FDF713F8013C4D
:1034BC00EDD101224F481146FDF708F822460221B2
:1034CC004C48FDF703F8224604214A48FCF7FEFF5E
:1034DC00224608214748FCF7F9FF224610214548AF
:1034EC00FCF7F4FF4FF47A70FCF770FE22464FF4B1
:1034FC0000513F48FCF7EAFF224601213E48FCF709
:10350C00E5FF0A263A4C6420FCF760FE4FF40051AC
:10351C002046FCF7DFFF013EF5D10122364811466B
:10352C00FCF7D4FF3E4F4FF47A70FCF74FFE3D4D45
:10353C003948304CDFF8B890DFF8C080FEF78EF9D0
:10354C003E6080212046FCF7BBFF40B92B780A2B4C
:10355C00F7D9FFF767FEF4E72B780A2B43D88021C5
:10356C002046FCF7ADFF0028F6D180212046FCF761
:10357C00A7FF06460028E9D14FF00A0A4FF4005184
:10358C004846FCF7A7FF032303AA08A9CDF800A01F
:10359C004046FEF757F9AA223B689DF80C104FEAFB
:1035AC00132C9DF80D008DF829C04FEA134C8DF8A3
:1035BC0028308DF82AC01B0E9DF80EC08DF82B30CC
:1035CC008DF82C20012308228DF82D108DF82E005B
:1035DC000AA90C488DF82FC0FEF7C4FB5046FCF727
:1035EC00F5FD2E70ADE7FFF71DFEB8E700100240A9
:1035FC000010014000080140000C0140980400201C
:10360C00003001401804002000380140C0030020A5
:10361C0000540040A086010058040020002C0140FA
:10362C001404002099010020FEE700BF0E4B82B06D
:10363C009A690E4942F001029A619A6902F00102FC
:10364C000092009ADA6942F08052DA61DB6903F089
:10365C0080530193019B4B6823F0E06343F00073AC
:10366C004B6002B0704700BF0010024000000140E8
:10367C00002330B50168144A87B09142CDE902337A
:10368C00CDE9043301D007B030BDC0200322122590
:10369C000E4C02A9A36943F00803A361A36902902D
:1036AC0003F0080300930A48009B03950592FCF76E
:1036BC000DFEE36943F40013E361E36903F40013C3
:1036CC000193019B07B030BD005400400010024034
:1036DC00000C014070B500240268194B86B09A4268
:1036EC00CDE90244CDE9044401D006B070BD2021DF
:1036FC000226032503F560439A69124842F480526E
:10370C009A619A6902F480520092009A9A6942F086
:10371C0004029A619B69029103F00403019302A9CC
:10372C00019B03960595FCF7D1FD402302A90548A2
:10373C00CDE903440293FCF7C9FD06B070BD00BF90
:10374C00003001400008014002680E4B9A4200D044
:10375C007047002203F5644310B59C6982B044F4B1
:10376C0000649C619B69114603F40063019319206A
:10377C00019BFCF74FFD192002B0BDE81040FCF78F
:10378C007FBD00BF002C014070B5002402681A4BAD
:10379C0086B09A42CDE90244CDE9044401D006B08A
:1037AC0070BD4FF400710226032503F558439A6946
:1037BC00124842F480429A619A6902F48042009263
:1037CC00009A9A6942F004029A619B69029103F093
:1037DC000403019302A9019B03960595FCF776FD62
:1037EC004FF4806302A90548CDE903440293FCF72A
:1037FC006DFD06B070BD00BF0038014000080140EF
:10380C00704700BFFEE700BFFEE700BFFEE700BF4A
:10381C00FEE700BF704700BF704700BF704700BF96
:10382C00FCF7C2BC0148FDF751B800BF840F002063
:10383C0008B50648FEF7D2F80548064902780B6829
:10384C000132013302700B6008BD00BF5804002028
:10385C00990100201404002030B44FF41F054FF0E0
:10386C0000640E4B0E4A19680E4841F001011960B4
:10387C0059680A405A601A6822F0847222F4803225
:10388C001A601A6822F480221A605A6822F4FE0226
:10389C005A609D60846030BC704700BF00100240CD
:1038AC000000FFF800ED00E008B5002210491148B7
:1038BC00FFF798F8C0B910490E48FFF7A9F880B97E
:1038CC000E490C48FFF760F840B90A48FFF7A8F812
:1038DC0000B908BDBDE80840FFF7A6BEFFF7A4FE7F
:1038EC00F3E7FFF7A1FEEBE7FFF79EFEE3E700BF70
:1038FC0060010020F0040020E00000201C010020EA
:10390C00002070470020704710B5054C014620463A
:10391C00FFF74AF82046FFF74DF8002010BD00BF16
:10392C00F004002010B5064C002220460549FFF794
:10393C0033F820460449FFF737F8002010BD00BFCC
:10394C00F00400209C0B0020B407002002680E4BF2
:10395C009A4200D07047002203F5DA3310B5DC69C7
:10396C0082B044F40004DC61DB69114603F400030B
:10397C0001931420019BFCF74DFC142002B0BDE810
:10398C001040FCF77DBC00BF005C004000F50C71E2
:10399C00D0F86802FFF75CB800EB4113D3F83C2178
:1039AC00D0F86802FFF784B800EB4113DA6BD0F85B
:1039BC006802FFF7BDB800BFD0F86802FFF758B92E
:1039CC00836810B5022B044601D0FFF72DFED4F806
:1039DC0068020121FFF734F9D4F86802BDE8104001
:1039EC00FFF706B910B50446D0F86802FFF72CF9BA
:1039FC00A36923B1024A136943F00603136110BD96
:103A0C0000ED00E0D0F86802FFF728B938B504469D
:103A1C000022082502211C4B1C48C4F8C032186037
:103A2C001846C3F86842C3E90151C3E906221A6279
:103A3C00FCF70EFE08B1FFF7F7FD00221823114624
:103A4C00D4F8C002FDF7FCF9582300228021D4F8E9
:103A5C00C002FDF7F5F9C02300228121D4F8C00281
:103A6C00FDF7EEF94FF4887300220121D4F8C0025F
:103A7C00FDF7E6F9D4F8C0024FF4807300228221DE
:103A8C00FDF7DEF9002038BD840F0020005C0040FB
:103A9C0008B5D0F8C002FCF759FE032896BF024BBC
:103AAC000220185C08BD00BF8C3D000810B51C46F8
:103ABC00D0F8C00213462246FCF774FE032896BFCA
:103ACC00014B0220185C10BD8C3D000808B5D0F8E5
:103ADC00C002FCF799FE032896BF024B0220185C2B
:103AEC0008BD00BF8C3D000808B5D0F8C002FDF73A
:103AFC0033F9032896BF024B0220185C08BD00BFA7
:103B0C008C3D000808B5D0F8C002FDF761F9032818
:103B1C0096BF024B0220185C08BD00BF8C3D00080C
:103B2C000A06D0F8C03204D403EB411393F82A01EF
:103B3C00704701F07F0103EB411393F82A007047A3
:103B4C0008B5D0F8C002FCF719FE032896BF024B4B
:103B5C000220185C08BD00BF8C3D000808B5D0F8E9
:103B6C00C002FCF79DFE032896BF024B0220185C96
:103B7C0008BD00BF8C3D000808B5D0F8C002FCF7AA
:103B8C006FFE032896BF024B0220185C08BD00BFD5
:103B9C008C3D0008D0F8C002FCF77ABE0048704794
:103BAC009C010020704700BF704700BF12230148E2
:103BBC000B8070472C010020042301480B807047B8
:103BCC004001002030B40025013AD2B28C1C04EB29
:103BDC004204020F092AD3B203F130028ABF3733F1
:103BEC000A700B704D7002318C424FEA0010F0D10C
:103BFC0030BC70471A220B480B4B00681B680A80BC
:103C0C00C01801D10948704710B5094B08221C682F
:103C1C000849FFF7D7FF204604220749FFF7D2FFD8
:103C2C00024810BDE8F7FF1FF0F7FF1F440100200A
:103C3C00ECF7FF1F460100205601002010B5044C84
:103C4C000A4604482146FFF781FA204610BD00BF02
:103C5C00F0110020903D000810B5044C0A460448B1
:103C6C002146FFF773FA204610BD00BFF01100206B
:103C7C00A43D000810B5044C0A4604482146FFF741
:103C8C0065FA204610BD00BFF0110020BC3D0008B5
:103C9C0010B5044C0A4604482146FFF757FA204653
:103CAC0010BD00BFF0110020C83D0008002103E04A
:103CBC000B4B5B58435004310A480B4B42189A4249
:103CCC00F6D30A4A02E0002342F8043B084B9A421E
:103CDC00F9D3FFF7C1FD00F00FF8FFF703FB7047B6
:103CEC00E03D0008000000207C0100207C01002049
:103CFC00F0130020FEE7000070B500250C4E0D4CB3
:103D0C00A41BA410A54209D100F01AF800250A4EF4
:103D1C000A4CA41BA410A54205D170BD56F8253041
:103D2C0098470135EEE756F8253098470135F2E70C
:103D3C00D83D0008D83D0008D83D0008DC3D0008FF
:103D4C00F8B500BFF8BC08BC9E467047F8B500BF7C
:083D5C00F8BC08BC9E4670474C
:103D640002030405060708090A0B0C0D0E0F1010B8
:103D74000000000000000000010203040607080917
:103D840000000000010203040002010253544D69C3
:103D940063726F656C656374726F6E696373000040
:103DA40053544D3332205669727475616C20436FDD
:103DB4006D506F727400000043444320436F6E667D
:103DC4006967000043444320496E74657266616309
:043DD4006500000086
:043DD80031010008AD
:043DDC000D010008CD
:103DE000010000001000000009024300020100C0B1
:103DF000320904000001020201000524001001053F
:103E000024010001042402020524060001070582A2
:103E10000308001009040100020A00000007050160
:103E20000240000007058102400000000902430033
:103E3000020100C032090400000102020100052451
:103E400000100105240100010424020205240600DB
:103E5000010705820308001009040100020A00009E
:103E600000070501020002000705810200020000B0
:103E700009074300020104C03209040000010202E4
:103E800001000524001001052401000104240202A0
:103E9000052406000107058203080010090401003B
:103EA000020A000000070501024000000705810228
:103EB000400000000A06000200000040010000006F
:103EC000E9280008A5280008DD27000800000000F8
:103ED0000D27000899270008692700080000000046
:103EE00000000000000000004527000839270008F6
:103EF000512700085D27000800A24A043139000854
:103F00000D390008113900081539000812010002A6
:103F10000202004083044057000201020301000036
:103F2000040309041A030000000000000000000060
:103F30000000000000000000000000000000000081
:103F4000B93B0008C53B0008493C0008653C000837
:0C3F5000013C0008813C00089D3C00087A
:0400000508003CB9FA
:00000001FF
